:1000000080300020352C0000EF870000092C000014
:10001000092C0000092C0000092C00000000000041
:10002000000000000000000000000000A924000003
:10003000092C00000000000045240000092C0000ED
:100040006525000065250000652500006525000088
:100050006525000065250000652500006525000078
:100060006525000065250000652500006525000068
:100070006525000065250000652500006525000058
:100080006525000065250000652500006525000048
:100090006525000065250000652500006525000038
:1000A0006525000065250000652500006525000028
:1000B0006525000065250000652500006525000018
:1000C0006525000065250000652500006525000008
:1000D00065250000652500006525000065250000F8
:1000E00065250000652500006525000065250000E8
:1000F00065250000652500006525000065250000D8
:1001000053B94AB9002908BF00281CBF4FF0FF317E
:100110004FF0FF3000F00CB8ADF1080C6DE904CEE3
:1001200000F008F8DDF804E0DDE9022304B07047D0
:10013000704700BF2DE9F04786468C460846089E6A
:10014000154674461946002B40F0C2808542B2FA2B
:1001500082F245D94AB1C2F1200300FA02FC2EFA1C
:1001600003F3954043EA0C0C94404FEA154EA8B2B5
:10017000BCFBFEF8230C0EFB18CC08FB00F943EA8D
:100180000C43994528D9EB1808F1FF3704D299455B
:1001900002D9A8F102072B44A3EB0903A4B2B3FBD5
:1001A000FEFC0EFB1C330CFB00F044EA0344A042AF
:1001B00014D92C190CF1FF3304D2A04202D9ACF1AE
:1001C00002032C44241A43EA07401EB1D440002302
:1001D00034607360BDE8F0874746DDE76346F1E7CA
:1001E00092BB431B01214FEA154EAFB2B3FBFEFC9D
:1001F000200C0EFB1C330CFB07F840EA0343984528
:1002000062D9EB180CF1FF3004D2984502D9ACF159
:1002100002002B44A3EB0803A4B2B3FBFEFC0EFBCD
:100220001C330CFB07F744EA0344A7424ED92C19B0
:100230000CF1FF3304D2A74202D9ACF102032C44E3
:10024000E41B43EA0040C0E7C2F1200320FA03F1B7
:10025000954090402EFA03F303434FEA154EAFB298
:10026000B1FBFEFC0EFB1C10190C0CFB07F841EA5D
:100270000041884504FA02F422D969180CF1FF30D4
:1002800004D2884502D9ACF102002944A1EB08014F
:100290009BB2B1FBFEFC0EFB1C110CFB07F743EA03
:1002A00001439F420ED9EB180CF1FF3104D29F425B
:1002B00002D9ACF102012B44DB1B41EA004192E779
:1002C0006046E3E76146F7E76046A3E76346B7E7C2
:1002D000834206D916B9002108467BE7C6E900E04B
:1002E000F9E7B3FA83F78FB9834201D3724508D88F
:1002F000BEEB020460EB030301209C461EB9002103
:1003000068E73846FAE7C6E9004CF8E7C7F1200C81
:10031000BB4022FA0CF41C432EFA0CF120FA0CF329
:10032000B84001434FEA14490EFA07F5B3FBF9F858
:100330001FFA84FE09FB18300B0C08FB0EFA43EA87
:1003400000439A4502FA07F240D9E31808F1FF305A
:1003500004D29A4502D9A8F102002344A3EB0A0370
:1003600089B2B3FBF9F809FB183308FB0EFE41EA2A
:1003700003418E452CD9611808F1FF3304D28E4514
:1003800002D9A8F10203214443EA0040A0FB0298ED
:10039000A1EB0E014145CE46434602D306D14D4561
:1003A00004D2B9EB020E68EB04030138002EA6D08C
:1003B000B5EB0E0261EB030101FA0CFC22FA07F324
:1003C0004CEA0303F940C6E9003198E74046C5E727
:1003D0004346D9E7034613F8012B002AFBD1181A2C
:1003E0000138704710B4094A13786BB9084B094CAF
:1003F00001201870084B10701968216010391960BD
:10040000064810BC07F077BD10BC7047251B0020C4
:10041000241B0020B41100203C000020909C000010
:10042000014603488368DB690BB101221847704716
:10043000AC9500002DE9F74FB24FB34C3B782068E4
:10044000B24D93B1B24E296833680133336007F07F
:10045000DEFC3368042B08DD2968AE480023103128
:1004600029603B70336007F046FDAB4E337833B103
:10047000AA4B2068196807F0CAFC002333703B7848
:100480004BB9A74E2B683168994204D0206807F019
:10049000BEFC2B6833602968206807F0BBFC60262F
:1004A00031462068013607F0B5FC802EF8D19D4E0C
:1004B00031684F2909DD206807F0A9FC316801394E
:1004C0004F29316041DC5F233360296833689942EA
:1004D00029D1954F954807F00EFD3B68013B3B60E5
:1004E00000252946206807F095FC01354FF4A470DB
:1004F000002107F08AFC802DF3D12946206807F0FF
:1005000086FC4FF4A470002107F07FFC013DF4D27B
:100510003B68002B1DDD8648002100EBC30007F07F
:100520007CFC7F233360834C834EA7683A21FB68B1
:100530002046984701463060002800F0D7807F4869
:1005400003B0BDE8F04F07F0D6BC206807F062FCAE
:10055000BBE7002529462068013507F05BFC802DAC
:10056000F8D140F69A10002107F04FFC2946206888
:1005700007F04DFC013DF9D2714D724F40F69A10D3
:10058000002107F042FC2A686F4842F20F739A423A
:10059000C8BF2B60296807F0AEFC2B6864224FF4BB
:1005A0007A7593FBF2F693FBF5F902FB163605FB21
:1005B000193595FBF2F50A2293FBF2F102FB113398
:1005C000009307EBC9194FF0000896FBF2F608F10B
:1005D000040309EB080AC34601935AF8042B206868
:1005E000012A594656D107F015FC019B0BF1010B6E
:1005F0009B45F2D108F11008B8F1800FE7D107EB65
:10060000C5184FF0080B4FF0000AABF1040945463E
:10061000D94542D10AF1040ABAF1200F08F11008B5
:1006200009F1100BF1D107EBC6164FF00C0A4FF091
:100630000009AAF10405B34655453CD109F1040966
:10064000B9F1200F06F1100605F1100AF1D1009B57
:10065000DFF8B48007EBC31710252C1F3E46AC42D1
:1006600036D1802C04F1100507F11007F5D1304D7B
:10067000002428460021013407F0CFFB042C05F1AB
:100680000805F6D140F69A10002103B0BDE8F04FFE
:1006900007F0BBBB07F0BBFBA7E755F8042B2068AE
:1006A000012A494604D107F0B5FB09F10109AFE77A
:1006B00007F0ADFBF9E75BF8043B2068012B294606
:1006C00003D107F0A7FB0135B6E707F0A0FBFAE777
:1006D00056F8043BD8F80000012B214603D107F05F
:1006E00099FB0134BBE707F092FBFAE7174D3B6932
:1006F00023212A46204698470146306050B31448CB
:100700001EE700BF251B0020D41100203C00002064
:10071000A4110020A29C0000241B0020B411002082
:10072000380000203400002040000020B49C00006D
:10073000B898000010960000A8110020D99C000075
:10074000B811002044000020CF9C0000AC11002014
:10075000F69C0000224A234C136829680133136079
:10076000226889B36FF0110391FBF3F303EB83036A
:100770001344B3F5FA7FA8BF4FF4FA73142BB8BF34
:1007800014231948236007F0B6FB2168174807F0C7
:10079000B2FB174A2468136824EAE47401334FF467
:1007A000004540F2E73000211360C4FB05014FF41F
:1007B0007A720023FFF7A4FC02460E480B4603B0F2
:1007C000BDE8F04F06F012B9322193FBF1F001FBC6
:1007D0001033002BDDD1142ADBDD511F2160D5E75A
:1007E000A0110020300000200F9D0000219D00007E
:1007F000B811002000000020134B042270B51A60CD
:10080000124A134D54231360124A1360124B7F2275
:100810001A60124A00241470114A1470114A1460AC
:1008200028460121013407F0F8FA042C05F10805E7
:10083000F6D10D4807F05FFBBDE870400B48002281
:10084000002306F0D3B800BF400000203C00002089
:10085000B89800003800002034000020251B00203C
:10086000241B0020B81100203F9D00000000002044
:1008700070B5314807F03FFB304808F0E1FB014616
:1008800030B92F4807F037FB4FF0FF34204670BDDA
:100890002C492D4807F084FA011E01DA2B48F1E7B4
:1008A000294807F09CFA014608B12948EAE7294897
:1008B000294B43604FF400638360FFF7B1FD274885
:1008C00007F019FB1D4808F0BBFB014608B9244896
:1008D000D8E71C49234807F063FA011E01DA2248D1
:1008E000D0E7204807F07BFA044610B101461F48C4
:1008F000C8E71F481F4B43604FF480538360FFF7E6
:100900008FFD1D4E2546306808F09AFB10B91B4834
:100910002946B7E74FF4D011304607F041FA011EDF
:1009200004DA17482A4607F0E6FAADE70135042D48
:1009300006F10806E7D1A9E74B9D0000AC95000041
:10094000669D000010000100E09800008D9D0000F1
:10095000AF9D0000C8110020E5030000DE9D0000EF
:10096000FE9D0000D89800002A9E0000519E0000C5
:10097000BC110020437E0000B8980000859E000056
:10098000A59E000070B586B0FFF772FF044630B137
:100990000146264806B0BDE8704007F0ACBA244DC9
:1009A0002448286008F04CFB034658B9224A0592B7
:1009B00002220492214804AA4FF4825100F0D8FF89
:1009C00006B070BD1E4807F096FA286883681B6958
:1009D00013B12246214698476026314628680136E1
:1009E00007F018FA802EF8D1164B28681968164DB2
:1009F00007F010FA28460121013407F00EFA042C02
:100A000005F10805F6D1114808F01AFB28B910487D
:100A100006B0BDE8704007F06EBA0E480022002311
:100A200006B0BDE8704005F0ADBF00BFCF9E00002E
:100A3000D4110020E8950000E39E00004C980000CF
:100A4000F89E00003C000020B898000010960000BE
:100A50000A9F0000000000202DE9F04F91B08407AC
:100A6000009302F004030293C2F3C20303F10103F3
:100A7000DDF86890039205460E46059340F0BA8172
:100A8000041D30B1072909D86FF01B0011B0BDE873
:100A9000F08F01F00706341DC6F10806009B4FF0E9
:100AA0000008591E4FF0040A4FF0FF330193CDF8B0
:100AB00010804746C34653460DB1009A2260059800
:100AC000002800F3E8809848009A824203D39748B0
:100AD0008242C0F0E080039AA4EB050E92074FEA31
:100AE0009E0000F103810F2F00F2B180002D00F075
:100AF000058107F140020DEB020C019A0CF8200C65
:100B00000CF8102C049801300490E7E07A285DD8A6
:100B10004B280ED8472859D829282DD8252852D017
:100B200054D820287AD02338D0F1000B4BEB000B9F
:100B300074E04C382E2849D8DFE800F07048484867
:100B400048484848484848484B4848484848484822
:100B50004859484B4B595959704B6D487048184B80
:100B6000184848827F4B48484B487F0000204FF090
:100B7000000B4FF0040A38E02A38C0B2012202FA12
:100B800000F010EA0E0F49D110F0625C2FD110EA8C
:100B9000020B43D06046013C5444B4FBFAF40AFB18
:100BA00004F4002D61D0A3EB050CA4446645FFF4CA
:100BB0006BAF002868D1042B47D159F8043B236060
:100BC000043404232AE0019A013A01924FF0000B09
:100BD00024E011F8010C6C2834D111F8023C0020FB
:100BE0006C2B8346C5D14FF0080A5346D3E709F171
:100BF000070929F007090734F9E802AB24F00704D4
:100C000035B106982044B0423FF63EAFC4E900AB90
:100C100008344FF0000B4FF0080A534611F8010F4B
:100C2000002878D0BBF1000F7FF470AF2528F5D1F4
:100C3000019B013301934FF0010B4FF0040AECE7E5
:100C4000584694E700208346A5E7082B02D06FF0B2
:100C500015001BE709F1070929F00709F9E8022344
:100C6000C4E9002308340823D8E768B9042B02D16B
:100C700009F10409A4E7082BE9D109F1070929F0D2
:100C8000070909F10809EDE7059A013A059259F8B3
:100C9000042B009210E7039A900720D5A4EB050ED1
:100CA0004FEA9E004FF0010CBEF5007FCFD20F2F10
:100CB000CDD8F5B107F140020DEB020EC0B2019A9A
:100CC0000EF8200C0EF8102CBCF1000F3FF41AAFF8
:100CD00060F07F000EF8200C08F101080137C5F123
:100CE0000802043406924FF6DA7E97E74FF0000CC4
:100CF000DAE7BCF1000F01D00136EFE702980236C7
:100D00000028EBD10098CDE90631FFF763FBDDE960
:100D100006310644E2E7631BB3F5806F97D23DB915
:100D2000A6F10804E018B1E6E4940000DCAC000091
:100D3000029A28609B082B709DF81030C2B1EB70AE
:100D400085F80280B8F1000F05D008A80022C5F18F
:100D5000010C97420ED1C5F101030DF120094FF0AE
:100D6000000A01930DF1300B574512D1601B8DE63F
:100D70006B70E5E710F8013B190608D504EB0C0E83
:100D8000764503F07F03FFF47FAE04F8013B0132A8
:100D9000DFE7B8F1000F03D099F90020002A17DB34
:100DA000029BD3B11AF80B2004F8012B0022019BFF
:100DB000981820448642FFF467AE99F8000004F8C2
:100DC000010B00990392204608F03BFB039A144460
:100DD0000AF1010A09F10109C6E799F8002055F85E
:100DE00022300093029B45F822300098FFF7F2FA78
:100DF000421CDCE76FF00D0048E600BF2DE9F04F24
:100E000095B000AF90F802B0BB61BB6F7A62C3F3DC
:100E1000C00304463B618A4641B9457800780BEB34
:100E200080002044554517D8A0EB040AE3787B6185
:100E3000BBF1000F02D0BB6FD80716D47B6953BB40
:100E40007B6A1BB1BA6951462046984755462846E9
:100E50005437BD46BDE8F08F461C3046FFF7BAFA5E
:100E6000013030440AF1010ADCE723783B629B0041
:100E7000FB603B6A6268FA6104EB83097B6A002BC2
:100E800040F0FE805546C84609EB0B0A0026D045C7
:100E900051D1D94413E0BB6F9907D1D523783B6278
:100EA00099469B00FB606368FB617B6A04EB8909E0
:100EB000002B7AD15546BBF1000F4FD15E46BB6F78
:100EC00013F0050F7B6909EB430ABB6F03F00203C4
:100ED0000CBF4FF0020B4FF0010B7B62D145B6D037
:100EE00019F8021B19F8013C54F82380AA4B9845C5
:100EF00002D3AA4B984538D33B69002B42D0F869FE
:100F000006F0D2FF00283DD0E8468AB06A46A44BDE
:100F10005361FB69C2E906314FF400731384A14B9E
:100F200042F8103FA04800234FF4125100F020FD7A
:100F3000023DC546D2E718F8013B54F82300FFF7FD
:100F400049FAFB6F01303BB1D7F880309E423EBF7B
:100F5000FB6F23F816000136054498E7BB6F13F0CA
:100F600004061CBF7E6AD944A9E73B6923B1F8692E
:100F700006F09AFF0028C7D1BB6FDA0705D4A5EBAE
:100F80000B05ABE77B6A002BA8D04046FFF722FA9F
:100F9000FB6F43B1D7F880309E423FBFFA6F431CCE
:100FA00022F816300136054498E7BBF1000F6DD0EA
:100FB000BB6F13F004066CD0D846002607F1400042
:100FC0005A46494608F03DFA7B695B007B607B69C5
:100FD000D94409EB4303BB60BB6F03F002033B60E2
:100FE000BB684B4557D1B96F6378B86F890706EB7B
:100FF000030254BF4FEA58010021C507D2B200F1E5
:101000009A8010F0040F14BF40460020FB6162700C
:10101000A070E170BA69F9687B6A20469847051E9E
:10102000FFF615AF3B6A2370FB6963707B69E37061
:101030004146BA697B6A84F802B007F140009847DC
:10104000B0F10008C0F2A480FB68BA69AAEB0B01FA
:10105000C91A7B684846C91A7B6A98470028C0F2BB
:101060009980A84408EB00054FF0000B07F1300A07
:10107000B34562D30021BA697B6A08469847E6E621
:101080005E464FF0000807F1300099E75E46D8460B
:101090009AE7B04698E719F8021B3F4B19F8015C34
:1010A00054F82500984202D33C4B98421DD33B692B
:1010B00023B1F86906F0F8FE002891D13B68FBB92E
:1010C00008F1280307F1280208F1010003EB020CE4
:1010D00007F1500353FA80F008F102080CF8101CD5
:1010E0005FFA88F800F8105C7AE73B692BB1F86981
:1010F00006F0DAFE00287FF473AFBB6FDB0709D57B
:1011000006F1280307F12802711C9E1806F8205CDE
:10111000CEB265E7BB6F58077FF562AF08F12803D1
:1011200007F1280208F1010103EB020808F8105C3E
:101130005FFA81F854E7002068E71BF80A3087F867
:101140002F3054F82390FB6FFBB133F81B80BA6942
:101150007B6A012107F12F00984700281ADB05441C
:10116000B8F1000F06D14846FFF734F900F1010845
:101170001FFA88F8BA697B6A4146484698470028B2
:1011800008DB05440BF1010B72E7D7F87C80DEE742
:1011900045465CE605465AE6E4940000DCAC0000F7
:1011A000299F000004000001F4970000014B186023
:1011B000704700BF4405002080B505460E4617461F
:1011C000984605F0F5FE034608F082F9DFF818901E
:1011D000044649F80030424630463946A84754F89C
:1011E000090001F0A7FD00BF080000002DE9F0474D
:1011F000058B04462807904611D4022905F00705FF
:1012000040F0CD80204606F0ECFE78B10138218B0D
:10121000042811D8DFE800F0C3106D85950001297E
:101220000CBF45F0100545F02005258388F3118893
:10123000BFF36F8FBDE8F08701F0070AAA4500F001
:10124000A6800027B9463E46A368002B00F0BD806B
:1012500041F00801218388F31188BFF36F8FA168E3
:10126000002900F0BB800D68002900F0B780D1F89C
:101270000480334652462046C047002D76D02B6866
:1012800029461D46F0E701F007035A1F012A1BD823
:10129000002221F00701062B276889B2C4E9002249
:1012A00009D13B4603E0628B013262831B68002B4D
:1012B000F9D141F002012183204606F092FE002878
:1012C0007BD041F0200177E0042B0AD121F0070107
:1012D00089B22183204606F084FE10B141F020013E
:1012E0002183218B01F0070AAA4550D00027B94677
:1012F000AAE7236921F0070141F00601062DD3F882
:10130000009021832DD1B9F1000F40D041F00801A8
:10131000218388F31188BFF36F8F3A492046C8476D
:1013200029E021F00701236941F0040189B2042D6D
:10133000D3F804902183E6D000273E464FF0040AFC
:1013400082E721F00701236941F0050189B2052DEB
:10135000D3F808902183D6D000273E464FF0050AE7
:1013600072E700273E464FF0060A6DE72B4687E7F7
:10137000B9F1000FD1D14FF02003EFF3118883F3BF
:101380001288BFF36F8F238B23F008032383258BF1
:10139000EA062ED525F01003238305F007056669BC
:1013A000218B002EBFF66FAF00232768C4E90033FE
:1013B00021F0070141F001012183218B01F0070A8F
:1013C000AA454FF000097FF43FAF002F9BD041F0BA
:1013D0000801218388F31188BFF36F8F002FC7D0D6
:1013E0003D68394633465246204606F026FE2F46D3
:1013F000F4E7AB067FF51AAF25F02003238305F051
:101400000705FFE66780000008B504464FF020029C
:10141000EFF3118382F31288BFF36F8F03F090FB19
:10142000204601F031FC034806F065FD00F008FF9E
:10143000FCE700BFDD9F000003F0CABB2DE9F047C9
:10144000DFF85880044607464FF0010914B93846C2
:10145000BDE8F08794FAA4F5B5FA85F509FA05F325
:101460002E0108EB05156FEA030A24EA03042B7B1F
:10147000002BEBD058F806301B694BB946440422C8
:1014800073682846196807EA0A0700F05DFADDE785
:10149000284698470028D9D1F0E700BF849800007B
:1014A00030B51049104889B0002207F0A0FF0F4D59
:1014B0000F4900220023CDE9062300240E23CDE9A5
:1014C0000334CDE901440B4B00944FF4407228469D
:1014D00004F058FF0849284607F011FE204609B0DD
:1014E00030BD00BFFD140000880F0020000B00205D
:1014F000801F0020ED17000006A00000014805F045
:101500007FB800BF900700202DE9F04780461F48B4
:101510000F4607F0CDF80646002830D000252846B3
:10152000BDE8F087237B73B12368DB680BB12046ED
:10153000984723681B69D3B9636804221968204659
:1015400000F002FA013610344C45EBD3B8F1000F2D
:10155000E5D0002DE2D02846FFF770FF0546002FAA
:10156000F7D000214FF4A47005F008FDF1E7204604
:1015700098470028E0D00AFA06F31D43E2E7044C3E
:10158000DFF8109005464FF0010ADDE7E811002072
:1015900084980000A4980000014B53F82000704785
:1015A000FC98000008B5034608462BB1044A1360B6
:1015B00000F080FC002008BD6FF01500FBE700BFC5
:1015C0004805002010B5044C237813B9034805F0F2
:1015D00017F80123237010BD261B00209007002060
:1015E00010B50446084807F063F85CB1BFF35B8FA1
:1015F000064B53E8001F013943E80012002AF8D1D6
:10160000BFF35B8F10BD00BFE0110020E41100208C
:101610000020064BBFF35B8F014653E8000F43E801
:101620000012002AF9D1BFF35B8F7047E011002050
:1016300070B5FFF7EDFF084C084E0546B44200D3E5
:1016400070BD63685B792BB123685B6813B1294671
:10165000204698471034F1E784980000A4980000D1
:1016600010B5044C0449204606F0B3FE034B1C6041
:1016700010BD00BFF0060020E8980000D81100203F
:10168000084A094808B500231370084A1360084A3D
:101690004FF400411360FFF785FFBDE80840FFF7F6
:1016A000DFBF00BF271B0020AD860000E011002037
:1016B000E4110020014600220148002306F0AABEE2
:1016C000F0060020014806F043BF00BFF0060020EE
:1016D000024B0146186806F08DBF00BFD8110020EC
:1016E000014806F0C3BF00BFF006002070B5284BCC
:1016F000187800284BD0FFF7E5FF054690B1BFF3FF
:101700005B8F244B53E8001F013943E80012002A85
:10171000F8D1BFF35B8F204C204EB4422DD3284626
:10172000FFF7D6FF1E4B1F4C1B68002B19DD07F07F
:101730005CFE4FF47A72A0FB020302FB0131C30B83
:10174000D4E9002043EA41439B1A4FEAD13140F2E9
:10175000E93261EB0001934271F1000101D3FFF71F
:1017600067FFD4E9003213F57A7342F10002C4E94D
:101770000032BDE87040FFF7B3BF63685B7923B107
:10178000236829461B68204698471034C5E770BD7A
:10179000261B0020E411002084980000A49800007B
:1017A000E0110020800F002070B50D4D297861B93F
:1017B0000120FFF7A9FE0B4C0B4EB44206D3FFF7F6
:1017C00095FF0028FBD101232B7070BD63685B7906
:1017D0001BB1236820469B6898471034EDE700BF93
:1017E000271B002084980000A498000000212DE908
:1017F000F0470846FFF788FE044658B340F2676892
:101800004FF0000907F064FE1B4B1C4A1B58136085
:1018100033B11B4B1B68092B02DD1A4804F0F0FEA4
:10182000194FDFF860A0002544B12046FFF706FEFF
:10183000044618B94FF0FF384FF0FF39FFF756FF55
:10184000064628B9B5B942464B46504604F0FCFE60
:101850003546E9E74FF0FF384FF0FF39D2E72B6804
:101860009B691BB100221146284698471035BD429E
:10187000F5D3E8E7054DFAE708000000DC11002089
:10188000E411002090070020A49800008498000034
:1018900013B5184806F00CFF174B1B787BB14FF0BF
:1018A0002003EFF3118483F31288BFF36F8FFFF7E8
:1018B0001DFF84F31188BFF36F8F02B010BD0F4B73
:1018C0001B68002BF9D050B900220023CDE900237A
:1018D0000B484FF40042002305F0AEFDEDE7092868
:1018E000EBD1074807F08FFD064802B0BDE8104075
:1018F00004F086BEE4110020271B0020DC1100202C
:10190000880F00209007002010B5064B1B68044686
:1019100098472146A060044806F0FAFDBDE8104053
:10192000FFF7B6BF48050020F0060020044A054B2B
:101930009B1AB1EBD30F34BF52F83100002070472F
:10194000CC97000084980000084BC31A10B41B11F8
:1019500044680133237143689A714368196043688E
:1019600001225A7110BCFFF72DBE00BF8498000001
:101970002DE9F04F8FB004AFC1F34A28B8600D468F
:1019800091467B600C0DB8F1000F63D0002607F183
:1019900014034FF0040B4FF00A0AC7F80C80C7E994
:1019A00007667E620193CDF808B0CDF800A007F17C
:1019B0001C03F96832464846FFF720FAB0F5006F7D
:1019C00003461CD36C468AB0D9F8041004AB2648F1
:1019D000C3E9050140F2FF71D9611A464FF4007165
:1019E0001984224B42F8103F214833464FF41251DC
:1019F000FFF7BEFFA5462C37BD46BDE8F08FC0F30C
:101A00000A0804F11700184420F0070080083B6022
:101A1000FFF750FE68F35325044690B13B68154A22
:101A2000C7E9083600F1100107F11403F961CDE9A7
:101A300000A3CDF808B0F96807F11C034846FFF78A
:101A4000DDF968F353257B68B9682A46204606F01D
:101A500065FED0E704F1170020F007008008FFF7CB
:101A600029FE0446EDE700BF1BA0000004000001B2
:101A700034980000F18600002DE9F04F87B0DDE9D1
:101A80001269DDE9105A04460F4693469846A6B3FC
:101A90001021CDF80090334652460020CDF8149026
:101AA000FEF7DAFF014605F117000844144B0391D5
:101AB00004F007040BF0070BE40020F0070003EA32
:101AC000412344EA8B1480081C43FFF7F3FD44EAEA
:101AD0000554054640B13EB10399CDF80090334618
:101AE00052461030FEF7B8FF434622463946284694
:101AF00007B0BDE8F04F06F011BE3146D3E700BF96
:101B000000FE0F000EB403B503AB014653F8042BDF
:101B10000448019301F022FA02B05DF804EB03B02F
:101B2000704700BF83870000CA0605D48B064CBFF0
:101B300002490349FFF7E6BF704700BF5BA0000002
:101B40005AA000002DE9F04F89B09A46DDE91473E0
:101B50009DF84CB00593169B179E069204460D46C1
:101B60000493BBF1000F00F0858006F00803079393
:101B700006F0BCFD06F002090246002849D086495D
:101B80002046FFF7BFFF8046B9F1000F08D016F0DE
:101B9000440F40D181492A462046FFF7B3FF8044D5
:101BA00006F0010353B17E4B7E4953F82B207E4B48
:101BB0002046002A08BF1A46FFF7A4FF06F00803D4
:101BC000002B54D0794B7A4953F82B202046FFF74D
:101BD00099FF0546069B2BB176491A462046FFF72A
:101BE00091FF0544BAF1000F05D0734952462046D3
:101BF000FFF788FF05444544002F49D1049B002B83
:101C00004FD1F30700F1C18031462046FFF78CFF2A
:101C1000B5E08046B8E7694B18680028BFD0684B2C
:101C20004FF47A791B68B5FBF3F54FF46161B5FBAE
:101C3000F0F300FB135509FB05F54FF03C0CB3FB2B
:101C4000F1F201FB1231B5FBF0FEB1FBFCF300FB3E
:101C50001E550CFB131109FB05F50091B5FBF0F5C2
:101C60005849CDE901E52046FFF74CFF97E706F01C
:101C70000805AFE7BAF1010F06D1002F65D1049B2B
:101C8000002B7CD000250CE0002FF8D04E485DE002
:101C90004E484F493B46224606F0D5F8049B002BA0
:101CA00069D0DFF83081DFF83091049F3146102F82
:101CB000204628BF1027FFF737FF4FF0000A554591
:101CC00046DC059B49461A782046FFF71BFF4FF07C
:101CD000010A1AF0070F03D141462046FFF712FF11
:101CE00057453CD9059B494613F80A202046FFF783
:101CF00009FF0AF1010ABAF1100FEAD1374920466B
:101D00004FF0000AFFF7FEFE5246059B9A5C344BEB
:101D1000995C11F0970F08BF2E2232492046FFF739
:101D2000F1FE0AF1010ABAF1100F1DD01AF0070FE7
:101D300003D141462046FFF7E5FE57455246E4D819
:101D400041462046FFF7DEFEEBE720485D46A0E770
:101D500041462046FFF7D6FE0AF1010AAFE72249C5
:101D60002046FFF7CFFEC4E7059B3B440593049B49
:101D7000DB1B049399D1BBF1000F7FF442AF2046E7
:101D800009B0BDE8F04F06F0EFBC074A0549204610
:101D9000FFF7B8FE38E700BF62A0000066A00000B1
:101DA0000C99000013A600005DA00000209900001F
:101DB0008BA0000091A0000095A00000F011002071
:101DC000EC1100206FA00000B9870000838700009D
:101DD0005D2F0000A2A000009AA00000A4A00000B7
:101DE000CCAB0000A6A00000A0A000002DE9F041AF
:101DF0000F884B688E6886B005460C469046C7F340
:101E000082175BB1144A9B1A43F3CF01002920DBF0
:101E10002078C0F3C200FFF789FD034621466088A1
:101E200051F8102B0197C2F34A22002A01EB020459
:101E3000C0F30B1008BF00210022CDE90408CDE952
:101E40000214009231462846FFF77CFE06B0BDE83A
:101E5000F0810023E2E700BFCC97000073B542F2A7
:101E60000F738B4228BF0B4605680F4A04460521B5
:101E7000684605F021FD63680C495B6806460B2245
:101E8000284606F064FC63683246694628465B686B
:101E900006F05DFC636806495B681B22284606F075
:101EA00056FC02B070BD00BF11AB0000C5A0000021
:101EB000A9A00000074A00210123904206D8064A43
:101EC00001B901231360054B1860704740085B009F
:101ED0000121F2E740420F00EC110020F011002038
:101EE000014B01221A707047281B0020014B002073
:101EF0001960704708120020024B034801221A7033
:101F000006F032BC291B0020509900000148FFF761
:101F1000A5BF00BF5099000010B5064B18680C46CD
:101F2000FFF73AFB21460346BDE8104002480F2266
:101F3000184700BF081200205099000010B9074B45
:101F400018707047064B1B781BB141F2883007F0C0
:101F500072B8A420002105F011B800BF281B002092
:101F6000291B00202DE9F843DFF874901D4F8046AF
:101F70000E46042499F8005095B903F0F3FF284663
:101F80003246414603F0A0FF054603F0F5FFE5B1F8
:101F900001233B7099F8003073B93046BDE8F883EF
:101FA00032464146002003F08FFF0546EFE720460A
:101FB000FFF7C4FF651E2C46002003F0C9FF002870
:101FC000EBD03B78002BF2D1E7E73B78002BE4D055
:101FD000013C2046FFF7B2FF3B78002BCAD1DCE77B
:101FE000291B0020281B0020014B0020196070478E
:101FF00020120020024B034801221A7006F0B4BBE5
:102000003B1B00207C9900000148FFF727BF00BF61
:102010007C99000010B5064B18680C46FFF7BCFA17
:1020200021460346BDE8104002480F22184700BF72
:10203000201200207C990000F8B5074F0D46044699
:102040004618B44201D12846F8BD14F8011BBB68FC
:1020500001485B689847F4E7C0950000014805F027
:1020600083BA00BF8C99000038B5044618B90F4BED
:102070000F485B6898476168B1F5683F10D0B1F5CB
:10208000680F0DD00B4DA9420AD011F46861206889
:1020900007D00146084807F006F800232360656072
:1020A00038BD142207F0DBF9F9E700BF7C060020F9
:1020B0001BA100002C5F5CA92417002008B520B3E9
:1020C0004368B3F5683F10D101220368BFF35B8F0B
:1020D00053E8001F002903D143E800200028F7D16E
:1020E000BFF35B8F0DD1002008BD094A93420AD08F
:1020F00000684FF0FF324FF0FF3304F0CBF90028B7
:10210000F1D00448F0E70448EEE76FF4E040EBE775
:102110002C5F5CA9E98FFFFFEA8FFFFF08B5D8B1FC
:102120004368B3F5683F10D100220368BFF35B8FAB
:1021300053E8001F012903D143E800200028F7D10C
:10214000BFF35B8F0BD1002008BD074A934208D034
:10215000006804F019FAF6E76FF4E040F4E703488A
:10216000F2E70348F0E700BF2C5F5CA9E98FFFFFAF
:10217000EA8FFFFF10B5044618B91D4B1D485B6878
:1021800098476368B3F5683F2FD0B3F5680F2CD03C
:10219000194A934219D1236803BB18484FF0FF3204
:1021A0004FF0FF33214604F07FF808B923681BB9CC
:1021B0000F4B13485B68984720681422002107F0F2
:1021C0004EF94FF46863636008E0B3F5683F0DD8DB
:1021D0003A2B03D040F6BA629342DED1206806F073
:1021E000A9FF636843F03A03636010BD054AF3E753
:1021F0007C0600201BA100002C5F5CA92417002096
:1022000041A100003A00003A08B5064906484023BB
:10221000142206F03AFFBDE808400449044805F0DE
:1022200015BA00BF24120020241700209499000042
:10223000A8990000014910220A60704710ED00E0E3
:1022400072B6404080F31188BFF36F8FBFF34F8F9A
:1022500030BF62B6BFF36F8F704700BF72B64940A0
:1022600081F31188BFF34F8F20BF80F3118862B6CE
:10227000704700BF2DE9F047814600AF0C460029AA
:102280004CD06E468AB0D1E90012A3686D4627484B
:10229000A8464FF0050AC5E90501C5E9072348F836
:1022A00010AF2348424600234FF42151FFF760FB53
:1022B000B546D4E903126369AD461E48C5F810A0BF
:1022C000C5E90501C5E907231948002342464FF433
:1022D0002151FFF74DFBB54688B0E3696D46164ABC
:1022E000A8464FF0030AC5E9052348F810AF104887
:1022F000002342464FF4C251FFF73AFBB546A369AB
:10230000AD460E4AC5F810A0C5E9052308480023CC
:1023100042464FF4C251FFF72BFBB54621464846D3
:1023200003F030FEBD46BDE8F08700BF6EA100009F
:102330005C9800009DA10000CCA10000DBA1000082
:1023400040B2002807DB044A4109012300F01F00C6
:10235000834042F82130704700E100E040B200289D
:102360000CDB4309064900F01F00203301228240A4
:1023700041F82320BFF34F8FBFF36F8F704700BF2B
:1023800000E100E0054B420900F01F0053F8222055
:10239000012303FA00F01040704700BF00E100E0A5
:1023A00040B20028A8BF00F1604001F10101B8BFB0
:1023B000064B4FEA4111ACBF00F5614000F00F0041
:1023C000C9B2B4BF195480F80013704714ED00E08F
:1023D00030BFFFF7FDBF00BF0B4A08B50B4B22F023
:1023E0007F029A60BFF34F8FBFF36F8FD3F88820BF
:1023F00022F47002C3F8882003F082FE04F050FE3D
:1024000000F00CFC03F0CEFE0000000000ED00E048
:10241000094A0A49936809689967094958674B68E6
:1024200043F080534B60002383F31188BFF36F8F19
:102430009368986F704700BF14190020D89B000064
:1024400000ED00E015498A684FF030001044EFF3CA
:10245000098C80E8F01F202080F31288BFF36F8F73
:102460000F4F4FF000664A698A603E604FF070047B
:10247000141920680B4C2060506F0023536780F3C1
:10248000118804B5104600F077FCBDE8044002F165
:10249000300090E8F01F8CF3098870471419002071
:1024A00004ED00E0401700201EF0040F0CBFEFF316
:1024B0000880EFF30980816911F8021C0229FFD01E
:1024C00001B506F08CF901BD42F8203C009B42F8B2
:1024D0001C3C0A49019B42F8183C029B42F8143C00
:1024E00021F001014FF0807342F8043C42F8081CCF
:1024F0000023203A02654367704700BFB91100000E
:10250000094A0346906870B113F1160F006E05D0AA
:10251000A0F140029A4205D8834203D2814228BFEB
:1025200000207047002070471419002008B5144699
:102530000A4A0B4B9060026F1A600D4600F01CFCBB
:10254000204685F30988002163B681F31188BFF323
:102550006F8F00220023FEF72FFE00BF141900200A
:102560004017002001B5EFF30580A0F110004FEAFD
:10257000C0000449014409C99847BDE80140024927
:10258000084700004C960000E9250000114B124A54
:102590002DE9F041D518DFF84480013DB5FBF3F596
:1025A0005D430F4B08EB0304013CB4FBF3F403FB66
:1025B00004540E1B07460B49304606F042FF7019C3
:1025C00042460021083E06F04AFF3E6704F108003B
:1025D000BDE8F081010000000000000004000000E0
:1025E00004000000A4980000044B996858698842D0
:1025F00003D003494FF080520A607047141900203D
:1026000004ED00E02DE9F04186B0064600AF0D462E
:10261000474B7B6102244FF4825146483C6107F1ED
:10262000100206F0EBF8444B9B6AD9046DD5434B7E
:102630004048C7E9044307F110024FF4825106F005
:10264000DDF817203C4B9B6A1A050BD53C4B7B6190
:10265000022338483B6107F110024FF4825106F023
:10266000CDF81820344CA36A9B0523D5E846354B9A
:102670007B6102232F483B6107F110024FF4825126
:1026800006F0BCF8A36BA26A100412D588B06A46A3
:102690002D492848C2E90513032342F8103F4FF49F
:1026A000C25106F0ABF8C5461EB1A36A23F400433D
:1026B000A3621920204B9B6A59050BD5234B7B61E4
:1026C00002231C483B6107F110024FF4825106F0CF
:1026D00095F81A20184B9A6AD20518D51C4B7B61C5
:1026E000022314483B6107F110024FF4825106F0B7
:1026F00085F81B20104A936A43F47F43936218378E
:1027000000232B70BD46BDE8F08116209AE79B6A36
:102710009B04EFD50F4B7B61022306483B6107F119
:1027200010024FF4825106F069F81C20E2E700BF66
:1027300009A200005C98000000ED00E01FA200006C
:1027400030A2000043A200005CA2000071A20000C1
:102750008CA20000A4A2000010B586B0364B37480A
:10276000059304AA02244FF48251049406F046F81B
:10277000334B9B6A9A015DD5324B304804AA4FF423
:102780008251CDE9044306F039F81E202C4B9B6A98
:10279000DB010AD52C4B2948059304AA02234FF4E8
:1027A0008251049306F02AF81F20254B9B6A1C03D4
:1027B0000AD5264B2148059304AA02234FF48251DF
:1027C000049306F01BF821201D4B9B6A59030AD580
:1027D0001F4B1A48059304AA02234FF48251049315
:1027E00006F00CF82220164B9B6A9A030AD5194B67
:1027F0001248059304AA02234FF48251049305F072
:10280000FDFF23200E4B9B6ADB030AD5124B0B48BE
:10281000059304AA02234FF48251049305F0EEFFBE
:102820002420074A936A6FEA03436FEA13439362D3
:1028300006B010BD1D20A9E7D3A200005C980000DF
:1028400000ED00E0EBA20000FEA2000018A30000D3
:1028500036A300005BA3000075A300002DE9F0473C
:1028600086B0814600AF8A469046514B7B61022478
:1028700050483C6107F110024FF4825105F0BEFF51
:102880004D4B9B6ADE0645D54C4B4A48C7E904438D
:1028900007F110024FF48251112405F0AFFF464BAF
:1028A0009B6A1D070BD5464B7B61022341483B6168
:1028B00007F110024FF48251122405F09FFF3E4DA4
:1028C000AB6A980728D56C463E4B7B6102233B617F
:1028D0004FF48251374807F1100205F08FFF6E6BFD
:1028E000AB6A190660D588B06A46374B3148C2E9F1
:1028F0000536032342F8103F4FF4C25105F07EFF26
:10290000A546BAF1000F03D0AB6A23F08003AB6297
:10291000132403E01024C2E76FF01506264B9B6AD0
:10292000DA070BD5294B7B61022322483B6107F173
:1029300010024FF48251142405F060FF1E4B9B6A75
:102940009B060BD5224B7B6102231A483B6107F1A2
:1029500010024FF48251152405F050FF164B9A6A6D
:10296000D50602D49A6A90070AD55B68190507D57F
:1029700049463046FFF7C4FD10B180F309880224B0
:102980000D4B9A6A920642BF5A6A22F400525A626A
:102990009A6A42F0FF029A6220460023183788F8AC
:1029A0000030BD46BDE8F0876FF01506B0E700BF08
:1029B000A0A300005C98000000ED00E0B6A30000BA
:1029C00030A20000E9A3000001A4000017A4000049
:1029D000A4A200002DE9F0437A4B8BB0D3F8048019
:1029E00000AF0446C8F30805002686F31188BFF33C
:1029F0006F8F02F07F43B3F17F4F0ED102F00C03D3
:102A0000082B19D1704BFB6102237048BB6107F1A1
:102A100018024FF4825105F0F1FE002634460023DF
:102A2000FB71EB1E092B00F2AD80DFE803F00AA07A
:102A3000A39CABABABABABA610074CBF0C460126BF
:102A4000EDE7E946624BFB614FF0020807F118021F
:102A50005E48C7F818804FF4825105F0CFFE00237E
:102A6000584DFB71EB6A9A070BD55A4BC7E90683A1
:102A7000564807F118024FF4825105F0BFFE0023BB
:102A800042E0EB6A002B01DA534BEFE7EB6A5B00A5
:102A9000F5D5524B4D48C7E9068307F118024FF4AC
:102AA000825105F0ABFE6B69A26943F480736B61E0
:102AB000BFF34F8FBFF36F8F6B6932F8022C23F493
:102AC00080736B61BFF34F8FBFF36F8F4DF602734F
:102AD0009A4209D0AB6ADBB2002B37D0FA1D012134
:102AE0002046FFF7BBFE40E088B023686A463C49B9
:102AF0003648C2E90513032342F8103F4FF4C25190
:102B000005F07CFE2368CD46FA79DAB907F10805AD
:102B100004F1200C206861682A4603C20834644529
:102B20001546F7D17A6A002E47D0C2F3080121B9C1
:102B30006FEA52226FEA42227A6207F108011846D0
:102B4000FFF798FB2C37BD46BDE8F083AB6A13F462
:102B50007F4F04D0F91D0120FFF754FD05E0AB6A5B
:102B6000B3F5803F8BD3FFF7F7FD0346CCE7FA1DA3
:102B70000021B5E7F91D0020EEE71A4BFB610223A7
:102B8000BB6175E7184A194B18F4F87FE8468AB01C
:102B900018BF13466A4616490C48C2E905134FF49C
:102BA00000731384103D134BD5614FF4115142F85B
:102BB000103F05F023FEC54661E722F4FF7222F0C4
:102BC0000102B9E700ED00E064A400005C98000099
:102BD0008FA40000A6A40000C7A40000D5A4000094
:102BE000F4A4000010A500004BA4000036A40000CF
:102BF00034A5000004000001024A536943F01003A9
:102C00005361704700ED00E0EFF30880EFF30981B6
:102C100001B57246FFF7DEFE01BD00BF0448002388
:102C20002021C2180133302B82F80013F9D17047EC
:102C300000E100E0002080F31488BFF36F8FFEF7FF
:102C4000FBFB00200D490860BFF34F8F0C4880F359
:102C5000088800F03DF8202080F3118809484FF4DF
:102C60000461401880F30988EFF3148002210843BF
:102C700080F31488BFF36F8FFFF7AEFB94ED00E095
:102C800080300020C0220020BFF34F8F0549064B43
:102C9000CA6802F4E0621343CB60BFF34F8F00BFFA
:102CA000FDE700BF00ED00E00400FA050749D1F898
:102CB00090200023C2F307221846934200DB70479E
:102CC000C1F89830C1F8A0000133F6E700ED00E04C
:102CD00008B572B6002383F31388FFF7E7FF144BA0
:102CE0004FF0FF32C3F88020C3F88420C3F8882057
:102CF000C3F88C20C3F89020C3F89420C3F8982020
:102D0000C3F89C20C3F88021C3F88421C3F888212C
:102D1000C3F88C21C3F89021C3F89421C3F89821FB
:102D2000C3F89C2162B6BFF34F8FBFF36F8F08BD0E
:102D300000E100E0084B9B6883420BD1EFF3058371
:102D400043B1064B5A6842F080525A605A6A22F4E4
:102D500000425A6204F032B91419002000ED00E07C
:102D6000024B034A0348012100F092B800000420FE
:102D700000000020B8990000026E054B403A1A602E
:102D8000044A4021C3E901121846012100F08AB823
:102D90004417002000000B152DE9F041DFF8B4E0E6
:102DA0009C4600AF154600238B421ADA4468002C7B
:102DB0004DD0BCF1000F1DD0661E344215D06C46BC
:102DC00088B06A462449C2E90513032342F8103F3C
:102DD000224800234FF4C251FEF7CAFD6FF01505DB
:102DE000A5462846BD46BDE8F0811F2CE7D90268FC
:102DF0001642E4D1202C026886685FFA85F814D95F
:102E0000B4F1004F13D8013CB4FA84F4C4F11F04A8
:102E10006400B8F1070F46EA04060AD96C4688B088
:102E20006A460F4BC2E90535CFE70824F1E73E2497
:102E3000EFE722F01F022A4342F0100246F001069B
:102E4000CEF89850CEF89C200135CEF8A060013322
:102E50000C30A9E700ED00E04BA5000054980000FD
:102E60006EA50000044B0522C3F89420BFF34F8FDA
:102E7000BFF36F8F704700BF00ED00E0BFF35F8FBF
:102E8000024B0022C3F89420704700BF00ED00E021
:102E900010B5034C01232278FFF77EFF207010BD90
:102EA0003C1B002008B5094A00231278FFF774FF85
:102EB00010F1160F03D0064B0022072800DD08BDD5
:102EC000C3F89800C3F8A0200130F6E73C1B0020AF
:102ED00000ED00E014490868082810B521D8FFF774
:102EE000CDFF124C49680022904201F10C0105D13E
:102EF0000F4B1870FFF7B6FF002010BDC4F89820E4
:102F000051F80C3C23F01F03134343F01003C4F8A3
:102F10009C3051F8043C43F00103C4F8A030013266
:102F2000E2E74FF0FF30E8E7C499000000ED00E071
:102F30003C1B002008B5024B1B689847002008BDC9
:102F400050170020034B044A1860937843F00203A3
:102F500093707047501700206C050020F0B587B0C3
:102F600007460E4614460021102268461D4606F00C
:102F700076FA02238DF802302A46054B019321464A
:102F80006846CDE9047604F0C3FC07B0F0BD00BF8D
:102F90000388000008B50649064821F00701C1F181
:102FA000005202F5802204F0DFFF002008BD00BFC0
:102FB00013350020003500200E4A0123C2F84035A9
:102FC0004FF080424FF08051C2F87835D1F830018F
:102FD000082808D1D1F83411052904D80648415CE5
:102FE00009B1C2F838364FF080430122C3F880257A
:102FF0000020704700E00140A3A5000020B1034B72
:10300000800143F001031847704700BFB0980000EB
:10301000084B70B5C31A0D4607499B100446594327
:103020000648402205F014FC2B4601462046BDE828
:103030007040184768170020B76DDBB68495000014
:1030400073B50C4C0C4A4023041B00930D460B46F1
:103050000A49A41061430646094805F025FC011EF3
:1030600005DA30462B4602B0BDE87040184702B082
:1030700070BD00BF6817002013890000B76DDBB674
:1030800084950000002270B5012104461046FFF728
:1030900087F90F4801F026FF0E4B984215D105F035
:1030A0000BFE26690C49304604F0EBFF00280BDBD1
:1030B000012535642469084904F11C0004F0E1FF8E
:1030C000002801DBE564002070BD6FF00400FBE721
:1030D000113100000000AD0BE499000070B501460D
:1030E0000C2309484B43C418D4E90E564033002240
:1030F0001844A26305F099FB2DB132462B460348D4
:10310000BDE87040184770BD681700208495000026
:1031100010B1012804D07047034B1B6C5B0701D131
:10312000FFF7DCBF704700BF6817002008B54FF0FD
:103130002003EFF3118183F31288BFF36F8F124ADC
:10314000136843F002001060DA0708D481F3118895
:10315000BFF36F8F0120BDE8084005F0BABD4FF006
:103160008043D3F80C24D3F80C34DB07EED50748A2
:1031700005F05BFB81F31188BFF36F8F0020BDE882
:103180000840FFF7ABBF00BFB8170020A81700200A
:103190001FB500220123CDE90223094ACDF800D052
:1031A0006B46CDF804D005F0ADFB002805DB4FF4ED
:1031B00080420023684603F047FA05B05DF804FB3F
:1031C0003189000010B54FF02003EFF3118483F331
:1031D0001288BFF36F8F074A136823F00201DB07E1
:1031E000116002D4012005F0B0FD84F31188BFF313
:1031F0006F8F10BDB8170020024AC3B21C2003FB1A
:1032000000207047681700202DE9F0413849BFF3CE
:103210005B8F0746012251E8003F41E8002000286B
:10322000F9D1BFF35B8F33B9324933484B60CB6080
:103230008A6004F039FF7B1E012B2BD8012F07D1A8
:103240004FF08043D3F81C3403F00303012B21D04B
:1032500005F04FFF0546F8B9284B1B78E3B14FF056
:1032600080430222C3F808230646DFF894804FF01B
:103270008044D4F81824D4F81834D20316D503F0B7
:103280000303012B01D0012F10D15DB386F3118808
:10329000BFF36F8FBDE8F0814FF02003EFF311868D
:1032A00083F31288BFF36F8F0125DEE7ADB130469F
:1032B000FEF7D4FFD4F81835002BDAD1D4F8042166
:1032C000002AD6D0C4F80431D4F804310123C4F85C
:1032D0001835C8F88031A360CBE70021212003F026
:1032E0004DFEE7E74FF080430222C3F80423D1E705
:1032F0006417002054170020841700204F1F00205F
:1033000000E100E008B5074805F09AFE38B106482C
:10331000FFF718FE0448FDF749FF002008BD6FF0D5
:103320001200FBE7C09500002D3300000A2838B5D5
:10333000074D044604D1AB680D215B6828469847C9
:10334000AB6803485B68E1B29847204638BD00BFD0
:10335000C095000030B54068057B01F01F04B2F550
:10336000001F85B044EA451405D1204602F096F8C6
:10337000002005B030BD0025B2F5800FCDE9025523
:1033800014D1B3F1007F0CBF042305238DF808305E
:103390000023194602AA204601F09CFE234B9842C6
:1033A0003DD10121204602F02BF8E1E7B3F1C06FD7
:1033B00027D0B3F1007F14BF012302238DF808301A
:1033C000836823FA01F111F00101E1D1B2F1A07F8C
:1033D000DED104F01F03620903F5E07313D0012A64
:1033E00020D1134A52F82330DB07D1D40DF1070561
:1033F0002946204601F0AEFF0E4B984206D00395B9
:10340000C6E70323DAE74FF0A042EBE7284601F0D6
:10341000F1FF064B9842F2D06FF00B00A9E76FF076
:103420001500A6E751F82330FFDE00BF0000AD0B0A
:10343000000300500400AD0B10B501F0CBFF0446B3
:1034400068B901F09FFF084B98420AD1074821460E
:1034500001F07AFF224605210620FEF7A1FF002099
:1034600010BD6FF00400FBE70000AD0B71340000ED
:10347000420970B5034602D0012A17D070BD0D4E27
:10348000326951680029F9D003F01F0301250C6847
:103490009D400029F2D08A682A4002D04B6830460D
:1034A00098472CB1236821461C46F2E7024EE7E715
:1034B0002346F8E7AC950000989500002DE9FF4100
:1034C00047683B7B01F01F0545EA43150E46284639
:1034D0000DF10701144601F03DFF14F4403F804612
:1034E0000DD1284602F000F83D4B984503D19DF8D8
:1034F000070001F079FF002004B0BDE8F08100234F
:10350000194602AA2846CDE9023301F0E3FD344B07
:10351000984214D1804503D19DF8070001F064FF63
:10352000A3034ED540F206332340B3F5837F1AD070
:103530000DD8062B18D005D8B3B1022B33D06FF0BD
:103540001500D9E7B3F5807FF9D101230CE040F2F3
:103550000222934229D0B3F5407F28D0B3F5007FF3
:10356000EDD1022300E007238DF8083084F4803386
:10357000C3F30043E0068DF8093054BFC4F3401391
:10358000032321038DF80A3013D57A680123B34051
:10359000C2F80835002202A9284601F05BFE104B54
:1035A0009842A8D0CBE70423DEE70523DCE703231A
:1035B000DAE7620341BF01237A68B340C2F80C35F1
:1035C000E8E7E3064FF0000354BFC4F340140324BC
:1035D0001A4602A928468DF8084001F07BFDDEE777
:1035E0000000AD0B08B543681B68D3F80805D3F895
:1035F0000C1502F0CBFB034B984214BF6FF00F0089
:10360000002008BD0000AD0BB0B5044682B000221A
:1036100000AF01210320FEF7C3FE63689D693A1DD8
:103620000021284605F069FA002827DB7B682A6814
:103630001979186800F066FC00281FDB60682369B0
:10364000114A00F1080102F047FA104B984218D0D5
:1036500023686C4688B06A460D49C2E905134FF4E9
:10366000007393830B4B42F8103F0B4800234FF439
:10367000E251FEF77DF96FF00F00A5460837BD4611
:10368000B0BD0020FAE700BF9D3600000000AD0B82
:10369000F6A50000030000011C9800000378012B30
:1036A00008D0022B08D04BB9054B0B6201F110007A
:1036B00002F0A6BF034BF8E7034BF6E7034BF4E732
:1036C0000000AD0B0100AE0B0200AE0B0100AD0B14
:1036D00010B511F001034268046986B00FD1C1F33F
:1036E000420001280ED0022815D00D4A0592022270
:1036F00004920C4804AA4FF48251FEF739F96FF096
:10370000150006E013684FF0CC72C3F824250020A2
:10371000616206B010BD13684FF0CD62F5E700BFDF
:1037200016A600001C9800002DE9F04F8BB000AFEA
:1037300006460C469246BB60D0F80490D0F8108044
:103740004FF0FF324FF0FF33404602F07DFF08F1AB
:103750001003FB600022002308F1100002F074FF48
:10376000484602F0FDF9DFF804B10025554501D3C4
:10377000002453E0237A3B6013F0080172D1122237
:1037800007F11600796005F06AFE3B686068B96869
:10379000B86103F001022068797513F0020F7968AF
:1037A0003A75386216D10AF1FF33AB4202D9237D54
:1037B0005B0711D5002A55D1202207F11401484694
:1037C00002F0FAF9584509D0294B984224D16FF0FC
:1037D0000F0423E00A46F0E74022EEE70023F868F2
:1037E0004FF4804202F030FF034610B36C4688B0BD
:1037F0006A46204BC2E90535032342F8103F1E48B4
:1038000000234FF4C251FEF7B3F84846A54602F034
:10381000B7F93046FFF7E6FE6FF00404484602F0C1
:10382000AFF9404602F0ECFE20462C37BD46BDE81D
:10383000F08FD8F82010594504F10C0410D06C46D4
:1038400088B06A460D48D561C2E90501042142F8F5
:10385000101F09484FF40151FEF78AF8A546DBE72F
:10386000013583E76FF08504D8E700BF0000AD0B9A
:103870000B00AD0B28A600001C98000052A600000B
:103880007FB5084B0593022304930748002304AA3D
:103890004FF48251FEF76CF86FF0150007B05DF839
:1038A00004FB00BF91A60000249800007FB5074BE1
:1038B00005930748022304AA4FF48251049305F0AC
:1038C000A4F86FF0040007B05DF804FBC7A6000081
:1038D0000C9800002DE9F04F8FB0064600AF06F1BE
:1038E000C803FB604FF0FF324FF0FF3306F1C80012
:1038F00002F0AAFEF86802F0CFFE32685368D2F8F0
:10390000108018689B884FF04002FA7507F1170283
:103910003A6201227A62002287F82820062207F103
:1039200018043A630722FC6287F83420826807F1A2
:10393000200195680222A8470546A0B16C4688B0D0
:103940006A462C4BC2E90530032342F8103F2A484F
:103950004FF4C45105F059F8A546002140F26760C4
:1039600003F00CFBC6E708F12003BB604FF0FF3209
:103970004FF0FF3308F1200002F08CFD08F5877A44
:103980002946A946637825783AF802BF45EA032517
:10399000AAF80050D8F83830002D18BF4FF00109B0
:1039A000B3B185EA0B0B00222BFA02F3DB070CD52F
:1039B000012393402B42D8E90D0C14BF01230023AF
:1039C000C7E90021E047D7E9002101320D2AEBD1F8
:1039D0000131032904F10204D4D1B86802F0D4FD06
:1039E00040F26760002103F0C9FAB9F1000F3FF41B
:1039F00076AF7FE7E9A600000C98000010B50146FD
:103A00001A44096940684C68944288B027D889688C
:103A1000914224D3FBB140F2DC539A421DD840F2CC
:103A2000EE239A4294BF832285228DF807200DF160
:103A30000701012204F0F0FF58B10A4B0A4807932E
:103A400006AA02234FF48251069304F0DEFF6FF0C2
:103A5000040008B010BD8122E7E78722E5E76FF098
:103A60001500F6E715A700000C980000B0B5034656
:103A700082B07F2940681C6900AF154635D8CB0855
:103A80001C443B7101F0070101238B40227CDBB217
:103A900025B313439A427B7125D00222391D04F0CD
:103AA000BBFFF0B1124A134B6C4688B0002D18BF13
:103AB00013466A4610491148C2E905134FF40073D2
:103AC00093830F4B42F8103F4FF4E25104F09DFFF7
:103AD0006FF00400A5460837BD46B0BD22EA0303D7
:103AE000D8E77B7923740020F5E76FF01500F2E743
:103AF000FEA300003CA7000040A700000C980000B7
:103B0000030000012DE9F04196B005694468286082
:103B100008AF206805F094FA88B99B4B7B630223B9
:103B20009A483B6307F130024FF4825104F06DFF75
:103B30006FF0150630463837BD46BDE8F0811022DB
:103B40000021A81805F08BFC00224FF4FA63C5E9A8
:103B500001234FF4C803EB6007F10C01212301227C
:103B600020463B7304F058FF014688B16C4622465C
:103B700088B0874BC4E90530032342F8103F8348DF
:103B80004FF4C25104F041FFA5466FF00406D1E79F
:103B9000112207F10C0005F062FC112207F10C0163
:103BA000204604F039FF30B16C46224688B0794B8C
:103BB000C2E90530E0E7EF23012207F10C012046BE
:103BC0003B7304F029FF20B16C46224688B0724B4B
:103BD000EEE78123012207F10C0120463B7304F03C
:103BE0001BFF064630B16C46224688B06B4BC4E9D9
:103BF0000530C1E705F1200005F09CFA01223146AD
:103C000005F1C80005F09DFA237A002B00F08A80A8
:103C1000E06805F015FA08B9614B7FE7638AE06850
:103C2000217C43F48032D0F810E0D0F8088013F003
:103C3000010F4FF0010CDEF800300CFA01FC14BF4C
:103C40004CEA030323EA0C03CEF80030D8F8003026
:103C5000984778B16C46224688B0524BC2E905308D
:103C6000032342F8103F49484FF4C25104F0CDFEFF
:103C7000A5465DE7237C4C4A4FF0010808FA03F3A0
:103C8000C5E91023E0688368DB6905F13C013BB1BD
:103C90004246984738B16C46224688B0434BDDE730
:103CA0006FF08500F7E7A12307F10C01424620469B
:103CB0003B7304F0B1FE014658B13D4B7B630223D8
:103CC00032483B6307F130024FF4825104F09DFE0D
:103CD0005BE74022FA70FA1C2068A38887F8281056
:103CE000C7E908283A1DFA6206223A63072287F8D4
:103CF0003420826807F12001D2F808800222C047F0
:103D000008B12C4BDAE7E068217C83684FF0A072A1
:103D10009C694FF00073A04700B36C46224688B000
:103D2000254B9BE7A023012207F10C0120463B73A2
:103D300004F072FE08B1214BC0E705F1D804204918
:103D40003246204605F053FB41F69A120023CDE996
:103D5000002320460022002303F06EFB00220023F4
:103D6000CDE9062300236FF00D02CDE90323CDE951
:103D700001330095134B4FF4C87205F5A07105F19E
:103D8000480002F0FFFAD5E65EA700000C9800009C
:103D900077A70000AAA70000D7A7000002A800008C
:103DA0002BA8000040A80000118A000065A80000B0
:103DB00089A80000ACA80000CFA80000FAA8000065
:103DC000058A0000D53800002DE9F04746683368C1
:103DD00000AF0546D3B96C4688B001686A463C48D6
:103DE000C2E905014FF4007191833A4942F8101F6E
:103DF00039484FF4E251FDF7BBFDA5466FF01204C0
:103E0000336863BB2046BD46BDE8F0870024F7E772
:103E10006D4688B06A46314BC2E90530032342F84B
:103E2000103F2D4800234FF4C251FDF7A1FDAD46D0
:103E3000E8E76C4688B029686A462948C2E9050166
:103E40004FF400719183234942F8101F22484FF428
:103E5000E251FDF78DFDA5466FF01204D2E7002C6C
:103E6000FAD1A0464FF00109746854F8380004EB09
:103E7000C80A05F0E5F803460028DAD054F83800FF
:103E80009AF80410BAF80630D0F810C0D0F808A09C
:103E9000DCF80040DA0754BF43F4B01383F4D013C6
:103EA00023F4801209FA01FEDB074CBF44EA0E043A
:103EB00024EA0E04CCF80040DAF8003098470446B3
:103EC0000028A5D1336808F101084345CCD899E70B
:103ED0002AA90000030000012C98000055A9000049
:103EE00074A90000036803F01F025B09026004D09C
:103EF000012B034818BF002070474FF0A0407047C7
:103F0000000300502DE9F04FDFF8989185B0154679
:103F1000824600EB81014FF00108514503D100209A
:103F200005B0BDE8F08FDAF8003003F07F04C3F38A
:103F300043277F2C4FEA134308BF4FF0FF34222B57
:103F400000F2AD80DFE803F01222282B2E352BABD8
:103F5000ABABAB4650ABABABABABABABABAB535E16
:103F60006164676A6D709A9DA0A3A600C5F80C45B0
:103F7000601C1BD003A80394FFF7B4FF039B08FA4F
:103F800003F3C0F808350126B34654E0C5F81445DC
:103F9000601C0BD00026F7E7C5F80845E8E7C5F830
:103FA0001045F5E7621CC5F8084576D10AF1040A08
:103FB000B3E7631CC5F80C45F8D0012603A80394A9
:103FC000FFF790FF039B08FA03F3C0F80C354FF09E
:103FD000010B30E0C5F80845002FD9D1631CE5D0AE
:103FE0000026B346062726E0C5F80C45F4E7C5F8D9
:103FF0006045661CDAF80030D8D0C3F38033002B5C
:10400000DBD0B7E7C5F86445F3E7C5F86845F0E7E6
:10401000C5F86C45EDE7C5F82045B9E7C5F8244576
:10402000B6E7C5F81C45B3E7C5F82445621CBDD00A
:1040300001264FF0000BDAF80030019303F4005230
:10404000002A03A81CBF01264FF0000B0394FFF7C2
:1040500049FF039A019B00EB8200C3F3C114D0F81F
:1040600000273B0243EA840343EA0B0302EA090206
:10407000134343EA4603C0F8003797E7C5F82845DD
:1040800076E7C5F83045D1E7C5F83445CEE7C5F841
:104090003845CBE7C5F83C45C8E700268EE76FF00A
:1040A00085003DE7F0F8FCFF036803F01F025B09A1
:1040B000026004D0012B034818BF002070474FF066
:1040C000A04070470003005010B54FF02003EFF3FD
:1040D000118483F31288BFF36F8F0029036808DD12
:1040E000C1F5B60202F5B6629A4207DB0B440360E3
:1040F00004E0FBD0044A521A9A42F7DD84F3118897
:10410000BFF36F8F10BD00BF50FAA4FF30B5232955
:104110000469406823D14FF02003EFF3118183F34A
:104120001288BFF36F8F00252368256081F3118803
:10413000BFF36F8F4FF4B4714B43016B93FBF1F1FD
:104140001160046B04FB113313B95360002030BDC0
:1041500004494B435360016B93FBF1F3F5E76FF0B8
:104160008500F4E740420F0090B585B000AF07F13D
:10417000100404E907001C46BB882069B3F5807F62
:1041800016D0B3F5827F16D1B968FFF79DFF4FF0C7
:104190002003EFF3118283F31288BFF36F8FD0E90E
:1041A000013182F31188BFF36F8F0BB1204698471E
:1041B0001437BD4690BD6C4688B06A460649C2E9D0
:1041C0000513032342F8103F044800234FF4C25163
:1041D000FDF7CEFBA546EBE79CA900006498000024
:1041E00070B5446886B0636A05469847A66A6A4611
:1041F0000021304604F081FC00281EDB009B326861
:1042000019791868FFF77EFE002816DB2B46254A31
:1042100004F10801204601F09FFA234B98420ED189
:10422000224B0593022304932148002304AA4FF450
:104230008251FDF79DFB6FF00F0006B070BD1D4B66
:1042400098420DD01C4B0593022304931848002379
:1042500004AA4FF48251FDF78BFB6FF00D00ECE7E1
:104260006968CB6A5A1C18D068460093FFF71CFF98
:10427000009A01239340C0F80C35CB6A009368463E
:10428000FFF712FF009B00EB83000C4BD0F80027D8
:10429000134043F00303C0F80037204601F07CFAD6
:1042A0000020CAE7694100000500AD0BB3A900007A
:1042B000649800000000AD0BC7A90000F0F8FCFFF7
:1042C000014B01221A60704700C000400C290369AD
:1042D0000BD15B6A064907484B4393FBF0F100FBA7
:1042E000113311605360002070476FF085007047F4
:1042F00090D0030040420F00044B00690022C3F835
:104300000021D3F8003102F07BB900BF00C00040AB
:104310007FB50569AB6A63B33A2901D00C292BD16B
:1043200005F110064FF0FF324FF0FF33304602F038
:10433000B1F8134B0193A86A032300246946039440
:10434000029303F0B1FE4FF0FF324FF0FF332846E7
:1043500002F07AF9A86A03F0FFFE0A4BD3F80825A9
:104360006A6201225A60304602F00EF9204604B01B
:1043700070BD6FF00A00FAE76FF08500F7E700BF45
:10438000C142000000C0004010B504690020FEF7E3
:1043900033FFA0624FF0FF320021204604F0D1FE2F
:1043A00004F1100004F0C6FE002201210C20FDF7EC
:1043B000F7FF0C20FDF7C4FF024B0122C3F80423D2
:1043C000002010BD00C00040F0B54B79012B26D075
:1043D000032B21D110258B79032B1DD1CE790EB162
:1043E000012E19D10A7912B1022A15D10E220B68B9
:1043F0004468B3F5164F276867D02DD8B3F5165F1C
:1044000066D016D8B3F5966F64D00AD8B3F5967F08
:1044100063D0B3F5167F63D06FF0850054E00025BC
:10442000D9E7B3F5166F5ED0B3F5965FF4D1384B8C
:104430003CE0B3F5E14F59D007D8B3F5615F57D0F1
:10444000B3F5964FE8D1334B30E047F61224A34240
:10445000E2D14FF4000329E0B3F5613F4AD013D80D
:10446000B3F5963F49D009D84DF6C024A34246D0B3
:10447000B3F5614FD0D14FF46B0317E0B3F5E13FD3
:10448000CAD14FF0EB7311E0B3F5612F3AD008D8E1
:10449000214CA34239D0B3F5E12FBDD14FF0E863F1
:1044A00004E01E4CA342B7D14FF080530469C7F813
:1044B0002435436835431B682A43C3F86C2503C978
:1044C000231D83E803000020F0BD4FF41D03EDE73A
:1044D000134BEBE74FF49E23E8E74FF4A033E5E7F7
:1044E0004FF41C33E2E74FF41D23DFE70D4BDDE70C
:1044F0000D4BDBE74FF06C73D8E70C4BD6E74FF46E
:104500006503D3E74FF07063D0E74FF08063CDE7EA
:1045100000B0130000A04E0090D0030040420F00F6
:104520000050270000C0750000F03A0000903A01EA
:104530002DE9F043002287B0804601210220FDF7DB
:104540002FFF0220FDF7FCFED8F80470D8F81060A9
:104550003C680021C4F80015C6F80080D7F80C901C
:104560006A46484604F0C9FA051E25DB009BD9F8C7
:10457000002019791868FFF7C5FC051E1CDB311DEA
:104580004046FFF721FF0546B0B97B68990723D560
:1045900006F1180001F0BCF8234B984210D0234BD1
:1045A00005930223049322482B4604AA4FF4825118
:1045B0006FF00405FDF7DCF9284607B0BDE8F0838D
:1045C000307E04F10C0204F5907104F06BFB337E35
:1045D0000120984000F01EFC0823C4F800353B7A07
:1045E00053B9C4F81031D4F810317369C4F83435B4
:1045F0000123C4F8383523607B689A075CBF4FF409
:104600008073C4F804337B68DB0644BF4FF4800337
:10461000C4F804333369C4F844350023C4F848357A
:104620000123A360E360C7E70000AD0B11AA0000FF
:104630007C980000F8B5044607690D4604F059FD62
:10464000B0B92E4B1B789BB16426606804F0C3FAA6
:1046500000BB012004F024FB013EF6D10021212003
:1046600002F08CFCF0E786F31188BFF36F8FF5E75B
:104670004FF02003EFF3118683F31288BFF36F8F9F
:104680006068314604F0A7FA90B986F31188BFF349
:104690006F8FEDE74FF02003EFF3118683F312885D
:1046A000BFF36F8F6068314604F095FA0028DAD0C6
:1046B0003B691D70626838691368C3F844050120BE
:1046C000C3F848050020C3F82001D3F82051C3F8EF
:1046D00058015268D3F85801D20608D562681268AA
:1046E0000820C2F800054FF48002C3F80423012219
:1046F0009A6081F31188BFF36F8FF8BD4F1F0020C0
:1047000070B5012383400E4ABFF35B8FDC4352E850
:10471000001F01EA040542E80056002EF7D1BFF35E
:104720005B8F4FF4803282400648C0F80823BFF305
:104730005F8FBFF36F8F0B4214BF0120002070BD4D
:10474000101800200010014070B40E49D1E9003467
:10475000D01AC31844F1000422F07F46C1E90034A6
:10476000A6F50013B3F5400F09D2074B1B681A0AD0
:104770001B069C19054B42F10005C3E9004570BCBE
:1047800002F064BDD00F002014180020D80F0020C4
:1047900011B3BFF35B8F0123104A834052E800CF6F
:1047A0004CEA030C42E800C10029F7D1BFF35B8F4C
:1047B0000B4A4FF480338340C2F80433094BBFF3F4
:1047C0005B8F1B68BFF35B8FC340DB0742BF064BA9
:1047D0004FF40032C3F80021704700BF10180020CA
:1047E000001001400C18002000E100E00D4B18689B
:1047F000010A0006BFF35F8F0B4BD3F8043518187E
:1048000041F10001B3F5801F0AD2084BD3E9002320
:10481000904271EB030303D210F1807041F100016B
:10482000704700BF1418002000100140D80F00206E
:104830002DE9F04F85B016461F469DF840A004466E
:10484000FFF75EFF0190FFF7D1FFB04271EB070366
:1048500054D23E4B301A67EB0101984271F10001CE
:104860004FD23B4B03EB0413D3E902239F4208BF13
:1048700096425ED037494FF4803804F1500508FA6B
:1048800004F8AD00C1F848832046ADB204F0ECF95D
:1048900026F07F4B05F1804504F5A87305F58835B2
:1048A000DC464FF003090293029A2CF07F4341F853
:1048B0002230C1F84483D1F80435274A6FF0020052
:1048C000C01A604420F07F40904232D9286868B115
:1048D000D1F804350393A3EB0B0020F07F40B0F533
:1048E000000F26D9204604F0BFF9039BBAF1000F50
:1048F00007D109EB030C09F10109D5E7BAF1000F63
:1049000009D06FF0150520460199FFF741FF2846B1
:1049100005B0BDE8F08F0123104ABFF35B8FA340C1
:1049200052E8000F184342E800010029F8D1BFF314
:104930005B8F07490E98230101EB0412C8500F9BAF
:104940005360C2E902670025DDE700BF0100800077
:10495000C00F002000100140FDFF7F000C18002058
:104960007FB51C4C1C4BC4F80833C4F848331B4BB0
:1049700000254FF0FF304FF0FF31C4F80855C3E970
:1049800002014FF48033C4F80433154B02264FF470
:1049900000320121C4F804631120C3F880212A46A3
:1049A000FDF7FEFC1120FDF7CBFC0E4A0123A360AE
:1049B000236013600C4B0D4A0093CDE90155002391
:1049C0002846FFF735FF3046FEF71EFC284604B0A8
:1049D00070BD00BF0010014003000F00C00F002099
:1049E00000E100E01018002049470000FFFF7F00B1
:1049F0002DE9F7432F4CD4F8043399070BD5D4F89D
:104A0000043143B12C4A0023C4F80431D4F80431F2
:104A1000136801331360D4F80433DA032AD5BFF3E3
:104A20005B8F264B53E8002F22F0010143E8001072
:104A30000028F7D1BFF35B8FD30702D4D4F84031FD
:104A4000C3B10025C4F84051D4F84031FFF7CEFE81
:104A50004FF02003EFF3118283F31288BFF36F8FBF
:104A6000174BD3E90267B042B94106D282F31188ED
:104A7000BFF36F8F03B0BDE8F0834FF0FF384FF006
:104A8000FF39C3E90289D3E900101D604FF4803378
:104A9000C4F84833C4F84051D4F8403182F3118847
:104AA000BFF36F8F0029E5D0009032463B46284681
:104AB0008847DFE700100140141800200C18002080
:104AC000C00F00201FB5431C23D0012823DD134A4B
:104AD000134B9042D4BF04461C46FFF787FE114B90
:104AE0000F49D3E90023801AB0F5000F28BF002436
:104AF00004448C4228BF0C46A2180B4900914FF089
:104B00000000CDE9010043F10003FFF791FE04B07E
:104B100010BD034CE1E70124DFE700BFFEFF7F008B
:104B2000FFFF7F00D00F00204947000008B5FFF7C6
:104B30005DFE024B1B68C01A08BD00BFD00F0020ED
:104B400010B5084C012363601120FDF707FC064BEC
:104B5000C4F80833C4F84833044B4FF40032C3F8A8
:104B6000802110BD0010014003000F0000E100E0B3
:104B70007FB5FCF719FE074B059302230493064803
:104B8000002304AA4FF48251FCF7F2FE0020FEF746
:104B90007BF800BF4EAA0000049800004FF080533D
:104BA000D3F83021082A06D1D3F83431052B02D8A6
:104BB000024AD05C70470020704700BF71AA000015
:104BC000024AD2F80034002BFBD0704700E00140CD
:104BD00010B54FF08053D3F83021082A4ED14FF052
:104BE00080420021C2F80C11C2F81011C2F8381529
:104BF00002F54042D3F80414C2F82015D3F8081483
:104C0000C2F82415D3F80C14C2F82815D3F81014E0
:104C1000C2F82C15D3F81414C2F83015D3F81814B0
:104C2000C2F83415D3F81C14C2F84015D3F8201478
:104C3000C2F84415D3F82414C2F84815D3F8281440
:104C4000C2F84C15D3F82C14C2F85015D3F8301410
:104C5000C2F85415D3F83414C2F86015D3F83814D8
:104C6000C2F86415D3F83C14C2F86815D3F84014A0
:104C7000C2F86C15D3F84434C2F87035FFF78EFFD4
:104C800018B13A4B3A4AC3F88C26FFF787FF18B1A0
:104C9000384BFB22C3F81825FFF780FF70B14FF0A7
:104CA00080414FF08053D1F8E42ED3F8583222F0EF
:104CB0000F0203F00F031343C1F8E43EFFF76EFF4A
:104CC00020B12D4B4FF40072C3F840264FF08053B3
:104CD000D3F83031082B1AD14FF08043D3F8002499
:104CE000D20744BF6FF00102C3F800244FF0805395
:104CF000D3F83431052B02D8204AD35C3BB14FF0B6
:104D00001023D3F808224FF08043C3F858254FF002
:104D10001023D3F80022002A03DBD3F80432002B3F
:104D200022DA174901234FF01020C1F8043512246C
:104D3000FFF746FFC0F80042FFF742FFC0F8044209
:104D4000FFF73EFF0023C1F80435FFF739FFBFF33B
:104D50004F8F0C490C4BCA6802F4E0621343CB60DE
:104D6000BFF34F8F00BFFDE710BD00BF00500040F4
:104D70004881030000F00040009002406BAA000050
:104D800000E0014000ED00E00400FA0530B50468E1
:104D9000CCB1BFF35B8FB4FA84F3C3F11F03DBB272
:104DA00001229A4024EA020250E8005FA54204D1A1
:104DB00040E8002CBCF1000FF6D1BFF35B8FE6D1C9
:104DC00002480B7030BD0248FCE700BF0000AD0B8D
:104DD0000200AD0B10B50368CB40DB0714D40123F0
:104DE0008B400268BFF35B8F43EA020150E8004F3B
:104DF000944204D140E8001CBCF1000FF6D1BFF38F
:104E00005B8FEED1014810BD0148FCE70000AD0BFF
:104E10000400AD0B014BC3F80405704700F00140DE
:104E2000F7B5044618B1012823D003B0F0BD4FF008
:104E300080430222C3F80823C3F80401D3F80421F5
:104E40000122DA60064601238DF8073042F2107520
:104E50004FF08047D4B1012CE7D1D7F80C3403F4DC
:104E60008033AEBB83B3012003F01AFF013DF4D1C0
:104E70002AE04FF080430022C3F80803C3F8002162
:104E8000D3F8002158600DF10706DCE7D7F8183495
:104E900003F480333EB9002BC7D0012003F000FF9C
:104EA000013DF3D1C1E7D7F8182402F003023260C4
:104EB000002BBAD09DF80700012803D103F0F0FEC3
:104EC000013DC7D1012CB0D1054B00225A71ACE78E
:104ED000D7F80C2402F001023270002BEAD1F3E77C
:104EE00018180020044B1A7922B9012218609A8000
:104EF0000248704702487047181800200000AD0BA8
:104F00000C00AD0B10B54FF08043D3F800216AB10F
:104F10000022C3F80021D3F800210122C3F808239E
:104F2000114B587910B95A711B6898474FF080435C
:104F3000D3F8042172B10022C3F80421D3F804216C
:104F4000D3F81824D3F81824920704D10122C3F807
:104F500018259A6010BD0222C3F80823024BBDE851
:104F600010401B680120184718180020036803F040
:104F70001F025B09026004D0012B034818BF002008
:104F800070474FF0A040704700030050034A4309A8
:104F900000F01F00D35C1844C0B2704782AA000022
:104FA00008B5FFF7F3FF034B083033F81000C0F3E8
:104FB000401008BDF405002008B5FFF7E7FF034BDC
:104FC000083033F81000C0F3400008BDF40500209D
:104FD00008B5FFF7DBFF034B083033F81000400B38
:104FE00008BD00BFF405002070B50546FFF7CEFFF1
:104FF0000C4C08300E4634F81030DA0508D5C3F3EF
:10500000432304EBC302284654F8333052689847D0
:10501000A3682BB1E26831462846BDE870401847C6
:1050200070BD00BFF405002010B5FFF7AFFF124AB6
:10503000083032F81030D9051CD5C3F3432123F4CE
:10504000F85322F8103002F10E04002034F8023F29
:1050500013F4807F03D0C3F3432399420AD0013075
:105060003028F3D1002342F831300448BDE8104025
:10507000FFF7B0BE10BD00BFF40500206806002099
:10508000F0B50146104A114C00200125064602F1F8
:105090004043A3F5C2439B0805FA03F3194204D029
:1050A000176817B11660176818430432A242EED190
:1050B000074BD3F87C2132B10022C3F87C21D3F80E
:1050C0007C3140F00040F0BD0061004020610040B4
:1050D000006000402DE9F04385B0054690461E462D
:1050E000FFF754FF044609B32846FFF765FF18B1E0
:1050F0002846FFF755FF38BB0023CDE900338DF874
:105100000E308DF80F300DF10F020B4628460DF1D1
:105110000E0103F01CFE4A4A04F1080132F8113076
:1051200023F0020343F0010322F81130B8F1000F1D
:1051300031D0284698F80070D8F80490FFF73CFF6B
:1051400020B1B9F1000F1BD03E4826E03C4B04F1E2
:10515000080C33F81C1021F02001C904C90C23F8F5
:105160001C10B9F1000F0BD0032FEDD8D8F8042094
:1051700092F800E0A7B9344B0EF5A27E43F82E70EA
:105180002F4A04F1080132F8113023F01C0343EADE
:10519000870322F811304EBB2C4805B0BDE8F083E0
:1051A0004FEA8E0202F1804202F5C04241EA4E31DE
:1051B000D2F8100520F00300C2F81005D2F810054F
:1051C00020F44F3020F44070C2F81005D2F810855A
:1051D000280200F47C5040EA080040EA074041F011
:1051E000200123F81C10C2F81005C9E7D6E90076A3
:1051F0002846FFF719FF002FCED0114DD5E9002327
:10520000974201D19E4218D011480DF10F01FFF7CE
:10521000BDFD0E4B9842C0D19DF80F2045F832706D
:1052200005EBC20308345E6035F8143043EA4223CC
:1052300043F4807325F81430AEE70022EEE700BF98
:10524000F40500200400AD0B006000400000AD0B31
:10525000680600202DE9FF4104461646FFF796FE3A
:10526000054631B32046FFF7A7FE20B92046FFF7D9
:1052700097FE002860D1314F05F1080837F8183043
:1052800013F01C0F02D04B78012B55D001238DF861
:105290000F300023CDE900134A1C8B1C20460DF172
:1052A0000F0103F054FD37F8183043F0030327F8DB
:1052B00018301EB9224804B0BDE8F0812046FFF73F
:1052C0007BFEC8B31D4F96F800C005F1080061468B
:1052D00037F81050890025F0200501F18041ED04D8
:1052E00001F5C041ED0C27F810500023C1F810352E
:1052F0007278002ADED0D1F81035B67823F49913ED
:1053000023F4F853C1F8103512042302D1F810E544
:1053100002F4403203F47C531343320543EA0E0394
:1053200002F4801245EA4C35134345F0200527F876
:105330001050C1F81035BDE70248BCE7F405002065
:105340000000AD0B0400AD0B014BC3E90201704737
:10535000F405002010B50446FFF722FE50B12046A8
:10536000FFF714FE044B083033F8103003485B0B92
:105370000B7010BD0248FCE7F40500200000AD0BE7
:105380000400AD0B70B50F4C94F87860BEB90E4DAB
:105390006022314604F1100004F061F8C5F87C6128
:1053A0000620D5F87C31FCF7CBFF4FF00043C5F861
:1053B00004330648012384F87830636770BD0448DD
:1053C000FCE700BFF4050020006000400000AD0BCA
:1053D0000500AD0B034B93F87800003818BF01208F
:1053E000704700BFF405002001460148FFF7F2BCFA
:1053F0006406002001460148FFF7C8BC640600208F
:1054000037B50446FFF7CCFD08B32046FFF7D4FDBF
:105410000546E0B92046FFF7DBFD03B29B0003F130
:10542000804202F5C24203F1804303F5C043156098
:105430001268D3F8102542F00102C3F8102521B1FB
:10544000144A01238340C2F8043303B030BD204620
:10545000FFF79CFD104B083033F81030C3F3820384
:10546000042B12D0052B12D001A80194FFF77EFD6A
:10547000019BD0F81015D94001F0010102312046FE
:1054800003B0BDE8304003F0ABBC0321F7E70221D5
:10549000F5E700BF00600040F405002010B50446A9
:1054A000FFF77EFDC0B12046FFF786FDA0B920467C
:1054B000FFF78EFD0B4A01238340C2F8083303B285
:1054C0009B0003F1804303F5C043D3F8102522F07D
:1054D0000302C3F8102510BD20460021BDE810408E
:1054E00003F07EBC0060004073B50446FFF74EFD3C
:1054F000184E00F1080536F81530DB0727D5204691
:10550000FFF7CCFF2046FFF74BFD40B12046FFF7E9
:105510005FFD114B00F5A270002243F820202046C9
:10552000FFF782FD002301A826F815300194FFF74C
:105530001DFD019B00EB8300084BD0F800271340B2
:1055400043F00203C0F80037054802B070BD0548BB
:10555000FBE700BFF405002000600040F0F8FCFF0E
:105560000000AD0B0400AD0B2DE9F04F644BD3F8F8
:105570000403C0B285B040F00040FFF781FD051E76
:1055800080F2A1804FF0A043D3F820250292C3F807
:105590002025D3F820280392C3F820280DF108080D
:1055A0004FF00009574B09EB030B4FE093FAA3FAB6
:1055B0009BF80040BAFA8AFA4AEA44142046FFF7F8
:1055C000E5FC514B019408304FEADA0233F81070D1
:1055D0000AF007030120984018F8023023EA00037C
:1055E00008F8023001A8FFF7C1FC019B03F5E07346
:1055F000B90850F82330C7F38206C3F3014A4B07BA
:1056000037462FD520463146FFF7EEFC01A801941E
:10561000FFF7ACFC019B03F5E0735FFA8AFA50F8E0
:105620002330C3F301439A4507D10021204603F0FC
:10563000D7FB5146204603F0D3FB01A80194FFF7A6
:1056400095FC019A01239340C0F82035D8F800302A
:10565000002BABD108F10408B9F1000F1DD14FF0B8
:1056600001099FE7BAF1020F0CD10321204603F094
:10567000B7FB06F00503012BDFD139462046FFF7C3
:10568000B3FCDAE70221204603F0AAFB032EF4D094
:10569000BAF1030FD1D1022EEEE74FF00040FFF731
:1056A000EFFC4FF0A0421949D2F820350293C2F81E
:1056B0002035D1F8202503921343C1F820257FF42B
:1056C0006DAF25F00045012415B905B0BDE8F08F98
:1056D00095FAA5F3B3FA83F304FA03F29B0003F1FE
:1056E000804303F5C04325EA0205D3F81005D3F83B
:1056F0001015C0F30520C1F30141FFF775FCE3E786
:105700000060004092AA0000F40500200003005051
:1057100001460148FFF73ABB7006002000F01F0267
:1057200040090BD001280CD1094B03EB8203094A35
:10573000D3F800170A40C3F8002770474FF0A04382
:10574000F3E702F5E072002353F82230FFDE00BFDA
:1057500000030050F0F8FCFFF8B504790B4F0C265D
:10576000664307EB060CBE5D6EB9CCE9012321B19F
:105770004B7E8CF8013003F042FB0C235C43012389
:105780003B550348F8BD0348FCE700BF2018002044
:105790000000AD0B0500AD0B016803790122C1F8D3
:1057A000002501680A600C225343024A0221D154A9
:1057B000704700BF201800207FB52A4CD4F8005154
:1057C0002DB10023C4F80031D4F800310125D4F8FC
:1057D000043133B10023C4F80431D4F8043145F066
:1057E0000205D4F8083133B10023C4F80831D4F8E5
:1057F000083145F00405E9070ED54FF48073ADF884
:105800000430D4F80C358DF80830174B04AA12E98F
:105810000700D3E90163B047AA0710D54FF482739C
:10582000ADF80430D4F818350293D4F84835039312
:105830000D4B04AA12E90700D3E90143A0476B0707
:105840000ED54FF48473ADF80430074B04AAD3E9A6
:10585000014312E90700A44604B0BDE87040604768
:1058600004B070BD002001402018002030B500F0C9
:105870001F04400911D0012812D10C4800EB84000C
:105880001B02D0F800570A4C43EA82022C4042EA3D
:1058900041012143C0F8001730BD4FF0A040EDE7B3
:1058A00004F5E074002353F82430FFDE00030050B9
:1058B000F0F8FCFFCB7B10B433B9D1E900420368A8
:1058C000C3F80845C3F80C2503688A68C3F8242583
:1058D00003793C225343054AD3582BB1006810BCCE
:1058E00040F30730FCF72CBD10BC70472C1800208B
:1058F00013B53B4B01930023C0F80431D0F80421C9
:10590000C0F82431D0F82421C0F81C31D0F81C2173
:10591000C0F80831D0F80821C0F800324B6381F894
:105920002F300123036291F82D209A4218BF836023
:105930004B6B8A6A934204460ED24A6AD35CC0F823
:105940001C350B6803B340F286238B608B682548B7
:10595000C4F8043302B010BD91F82C3013B1012308
:10596000C361EEE70B6A13F0400F4FF0010316BF5F
:10597000C361436181F82D30E3E7204603F0AFFABD
:1059800028B1019B013B0193019B002BF5DC91F8B1
:105990002F305BB91348019B002BDBDC0023C4F8DC
:1059A000003505231048C4F80035D3E7D4F8C434D3
:1059B000C4F8C4348BB10D4A0B4813F0010F18BF63
:1059C000104613F0020F02F1010218BF104613F047
:1059D000040F074B18BF1846DDE70348DBE700BF9D
:1059E000A08601000000AD0B0100AD0B0000AE0B66
:1059F0000200AE0B13B5334B01930023C0F8043102
:105A0000D0F80421C0F82431D0F82421C0F81C318A
:105A1000D0F81C21C0F80831D0F808214B6381F878
:105A20002F308B6A012B044617D10B6A5B0614D406
:105A30000223C4F800320123236291F82D20022AA8
:105A400018BF23600B688BB140F286238B608B6894
:105A50001D48C4F8043302B010BD0123E9E7204615
:105A600003F03DFA28B1019B013B0193019B002B00
:105A7000F5DC91F82F305BB91348019B002BEADC71
:105A80000023C4F8003505231048C4F80035E2E7C8
:105A9000D4F8C434C4F8C4348BB10D4A0B4813F0A5
:105AA000010F18BF104613F0020F02F1010218BFD8
:105AB000104613F0040F074B18BF1846DDE70348E4
:105AC000DBE700BFA08601000000AD0B0100AD0BBD
:105AD0000000AE0B0200AE0B2DE9F84390F80490E5
